{
  "_format": "hh-sol-artifact-1",
  "contractName": "AtotoNFT",
  "sourceName": "contracts/Atoto.sol",
  "abi": [
    {
      "inputs": [
        {
          "internalType": "string",
          "name": "_initBaseURI",
          "type": "string"
        }
      ],
      "stateMutability": "nonpayable",
      "type": "constructor"
    },
    {
      "anonymous": false,
      "inputs": [
        {
          "indexed": true,
          "internalType": "address",
          "name": "owner",
          "type": "address"
        },
        {
          "indexed": true,
          "internalType": "address",
          "name": "approved",
          "type": "address"
        },
        {
          "indexed": true,
          "internalType": "uint256",
          "name": "tokenId",
          "type": "uint256"
        }
      ],
      "name": "Approval",
      "type": "event"
    },
    {
      "anonymous": false,
      "inputs": [
        {
          "indexed": true,
          "internalType": "address",
          "name": "owner",
          "type": "address"
        },
        {
          "indexed": true,
          "internalType": "address",
          "name": "operator",
          "type": "address"
        },
        {
          "indexed": false,
          "internalType": "bool",
          "name": "approved",
          "type": "bool"
        }
      ],
      "name": "ApprovalForAll",
      "type": "event"
    },
    {
      "anonymous": false,
      "inputs": [
        {
          "indexed": true,
          "internalType": "address",
          "name": "newOnwer",
          "type": "address"
        },
        {
          "indexed": false,
          "internalType": "uint256",
          "name": "tokenId",
          "type": "uint256"
        }
      ],
      "name": "NewAtotoNFTMinted",
      "type": "event"
    },
    {
      "anonymous": false,
      "inputs": [
        {
          "indexed": true,
          "internalType": "address",
          "name": "previousOwner",
          "type": "address"
        },
        {
          "indexed": true,
          "internalType": "address",
          "name": "newOwner",
          "type": "address"
        }
      ],
      "name": "OwnershipTransferred",
      "type": "event"
    },
    {
      "anonymous": false,
      "inputs": [
        {
          "indexed": true,
          "internalType": "address",
          "name": "from",
          "type": "address"
        },
        {
          "indexed": true,
          "internalType": "address",
          "name": "to",
          "type": "address"
        },
        {
          "indexed": true,
          "internalType": "uint256",
          "name": "tokenId",
          "type": "uint256"
        }
      ],
      "name": "Transfer",
      "type": "event"
    },
    {
      "inputs": [],
      "name": "MAX_SUPPLY",
      "outputs": [
        {
          "internalType": "uint256",
          "name": "",
          "type": "uint256"
        }
      ],
      "stateMutability": "view",
      "type": "function"
    },
    {
      "inputs": [
        {
          "internalType": "uint256",
          "name": "",
          "type": "uint256"
        }
      ],
      "name": "_tokenNames",
      "outputs": [
        {
          "internalType": "string",
          "name": "",
          "type": "string"
        }
      ],
      "stateMutability": "view",
      "type": "function"
    },
    {
      "inputs": [
        {
          "internalType": "address",
          "name": "to",
          "type": "address"
        },
        {
          "internalType": "uint256",
          "name": "tokenId",
          "type": "uint256"
        }
      ],
      "name": "approve",
      "outputs": [],
      "stateMutability": "nonpayable",
      "type": "function"
    },
    {
      "inputs": [
        {
          "internalType": "address",
          "name": "owner",
          "type": "address"
        }
      ],
      "name": "balanceOf",
      "outputs": [
        {
          "internalType": "uint256",
          "name": "",
          "type": "uint256"
        }
      ],
      "stateMutability": "view",
      "type": "function"
    },
    {
      "inputs": [],
      "name": "baseExtension",
      "outputs": [
        {
          "internalType": "string",
          "name": "",
          "type": "string"
        }
      ],
      "stateMutability": "view",
      "type": "function"
    },
    {
      "inputs": [],
      "name": "baseURI",
      "outputs": [
        {
          "internalType": "string",
          "name": "",
          "type": "string"
        }
      ],
      "stateMutability": "view",
      "type": "function"
    },
    {
      "inputs": [
        {
          "internalType": "uint256",
          "name": "tokenId",
          "type": "uint256"
        }
      ],
      "name": "getApproved",
      "outputs": [
        {
          "internalType": "address",
          "name": "",
          "type": "address"
        }
      ],
      "stateMutability": "view",
      "type": "function"
    },
    {
      "inputs": [
        {
          "internalType": "address",
          "name": "owner",
          "type": "address"
        },
        {
          "internalType": "address",
          "name": "operator",
          "type": "address"
        }
      ],
      "name": "isApprovedForAll",
      "outputs": [
        {
          "internalType": "bool",
          "name": "",
          "type": "bool"
        }
      ],
      "stateMutability": "view",
      "type": "function"
    },
    {
      "inputs": [
        {
          "internalType": "string",
          "name": "_tokenName",
          "type": "string"
        }
      ],
      "name": "mintNFT",
      "outputs": [
        {
          "internalType": "bool",
          "name": "",
          "type": "bool"
        }
      ],
      "stateMutability": "payable",
      "type": "function"
    },
    {
      "inputs": [
        {
          "internalType": "uint256",
          "name": "",
          "type": "uint256"
        }
      ],
      "name": "mintedTokens",
      "outputs": [
        {
          "internalType": "string",
          "name": "",
          "type": "string"
        }
      ],
      "stateMutability": "view",
      "type": "function"
    },
    {
      "inputs": [],
      "name": "name",
      "outputs": [
        {
          "internalType": "string",
          "name": "",
          "type": "string"
        }
      ],
      "stateMutability": "view",
      "type": "function"
    },
    {
      "inputs": [],
      "name": "owner",
      "outputs": [
        {
          "internalType": "address",
          "name": "",
          "type": "address"
        }
      ],
      "stateMutability": "view",
      "type": "function"
    },
    {
      "inputs": [
        {
          "internalType": "uint256",
          "name": "tokenId",
          "type": "uint256"
        }
      ],
      "name": "ownerOf",
      "outputs": [
        {
          "internalType": "address",
          "name": "",
          "type": "address"
        }
      ],
      "stateMutability": "view",
      "type": "function"
    },
    {
      "inputs": [],
      "name": "renounceOwnership",
      "outputs": [],
      "stateMutability": "nonpayable",
      "type": "function"
    },
    {
      "inputs": [
        {
          "internalType": "address",
          "name": "from",
          "type": "address"
        },
        {
          "internalType": "address",
          "name": "to",
          "type": "address"
        },
        {
          "internalType": "uint256",
          "name": "tokenId",
          "type": "uint256"
        }
      ],
      "name": "safeTransferFrom",
      "outputs": [],
      "stateMutability": "nonpayable",
      "type": "function"
    },
    {
      "inputs": [
        {
          "internalType": "address",
          "name": "from",
          "type": "address"
        },
        {
          "internalType": "address",
          "name": "to",
          "type": "address"
        },
        {
          "internalType": "uint256",
          "name": "tokenId",
          "type": "uint256"
        },
        {
          "internalType": "bytes",
          "name": "_data",
          "type": "bytes"
        }
      ],
      "name": "safeTransferFrom",
      "outputs": [],
      "stateMutability": "nonpayable",
      "type": "function"
    },
    {
      "inputs": [
        {
          "internalType": "address",
          "name": "operator",
          "type": "address"
        },
        {
          "internalType": "bool",
          "name": "approved",
          "type": "bool"
        }
      ],
      "name": "setApprovalForAll",
      "outputs": [],
      "stateMutability": "nonpayable",
      "type": "function"
    },
    {
      "inputs": [
        {
          "internalType": "string",
          "name": "_newBaseURI",
          "type": "string"
        }
      ],
      "name": "setBaseURI",
      "outputs": [],
      "stateMutability": "nonpayable",
      "type": "function"
    },
    {
      "inputs": [
        {
          "internalType": "uint256",
          "name": "tokenId",
          "type": "uint256"
        },
        {
          "internalType": "string",
          "name": "_tokenName",
          "type": "string"
        }
      ],
      "name": "setTokenName",
      "outputs": [],
      "stateMutability": "nonpayable",
      "type": "function"
    },
    {
      "inputs": [
        {
          "internalType": "bytes4",
          "name": "interfaceId",
          "type": "bytes4"
        }
      ],
      "name": "supportsInterface",
      "outputs": [
        {
          "internalType": "bool",
          "name": "",
          "type": "bool"
        }
      ],
      "stateMutability": "view",
      "type": "function"
    },
    {
      "inputs": [],
      "name": "symbol",
      "outputs": [
        {
          "internalType": "string",
          "name": "",
          "type": "string"
        }
      ],
      "stateMutability": "view",
      "type": "function"
    },
    {
      "inputs": [
        {
          "internalType": "uint256",
          "name": "tokenId",
          "type": "uint256"
        }
      ],
      "name": "tokenName",
      "outputs": [
        {
          "internalType": "string",
          "name": "",
          "type": "string"
        }
      ],
      "stateMutability": "view",
      "type": "function"
    },
    {
      "inputs": [
        {
          "internalType": "string",
          "name": "_newTokenURI",
          "type": "string"
        }
      ],
      "name": "tokenURI",
      "outputs": [
        {
          "internalType": "string",
          "name": "",
          "type": "string"
        }
      ],
      "stateMutability": "view",
      "type": "function"
    },
    {
      "inputs": [
        {
          "internalType": "uint256",
          "name": "tokenId",
          "type": "uint256"
        }
      ],
      "name": "tokenURI",
      "outputs": [
        {
          "internalType": "string",
          "name": "",
          "type": "string"
        }
      ],
      "stateMutability": "view",
      "type": "function"
    },
    {
      "inputs": [
        {
          "internalType": "address",
          "name": "from",
          "type": "address"
        },
        {
          "internalType": "address",
          "name": "to",
          "type": "address"
        },
        {
          "internalType": "uint256",
          "name": "tokenId",
          "type": "uint256"
        }
      ],
      "name": "transferFrom",
      "outputs": [],
      "stateMutability": "nonpayable",
      "type": "function"
    },
    {
      "inputs": [
        {
          "internalType": "address",
          "name": "newOwner",
          "type": "address"
        }
      ],
      "name": "transferOwnership",
      "outputs": [],
      "stateMutability": "nonpayable",
      "type": "function"
    }
  ],
  "bytecode": "0x608060405260056009556040518060400160405280600581526020017f2e6a736f6e000000000000000000000000000000000000000000000000000000815250600b90805190602001906200005692919062000305565b503480156200006457600080fd5b50604051620041693803806200416983398181016040528101906200008a919062000552565b6040518060400160405280600581526020017f41544f544f0000000000000000000000000000000000000000000000000000008152506040518060400160405280600381526020017f41544f000000000000000000000000000000000000000000000000000000000081525081600090805190602001906200010e92919062000305565b5080600190805190602001906200012792919062000305565b5050506200014a6200013e6200016260201b60201c565b6200016a60201b60201c565b6200015b816200023060201b60201c565b506200068a565b600033905090565b6000600760009054906101000a900473ffffffffffffffffffffffffffffffffffffffff16905081600760006101000a81548173ffffffffffffffffffffffffffffffffffffffff021916908373ffffffffffffffffffffffffffffffffffffffff1602179055508173ffffffffffffffffffffffffffffffffffffffff168173ffffffffffffffffffffffffffffffffffffffff167f8be0079c531659141344cd1fd0a4f28419497f9722a3daafe3b4186f6b6457e060405160405180910390a35050565b620002406200016260201b60201c565b73ffffffffffffffffffffffffffffffffffffffff1662000266620002db60201b60201c565b73ffffffffffffffffffffffffffffffffffffffff1614620002bf576040517f08c379a0000000000000000000000000000000000000000000000000000000008152600401620002b69062000604565b60405180910390fd5b80600a9080519060200190620002d792919062000305565b5050565b6000600760009054906101000a900473ffffffffffffffffffffffffffffffffffffffff16905090565b828054620003139062000655565b90600052602060002090601f01602090048101928262000337576000855562000383565b82601f106200035257805160ff191683800117855562000383565b8280016001018555821562000383579182015b828111156200038257825182559160200191906001019062000365565b5b50905062000392919062000396565b5090565b5b80821115620003b157600081600090555060010162000397565b5090565b6000604051905090565b600080fd5b600080fd5b600080fd5b600080fd5b6000601f19601f8301169050919050565b7f4e487b7100000000000000000000000000000000000000000000000000000000600052604160045260246000fd5b6200041e82620003d3565b810181811067ffffffffffffffff8211171562000440576200043f620003e4565b5b80604052505050565b600062000455620003b5565b905062000463828262000413565b919050565b600067ffffffffffffffff821115620004865762000485620003e4565b5b6200049182620003d3565b9050602081019050919050565b60005b83811015620004be578082015181840152602081019050620004a1565b83811115620004ce576000848401525b50505050565b6000620004eb620004e58462000468565b62000449565b9050828152602081018484840111156200050a5762000509620003ce565b5b620005178482856200049e565b509392505050565b600082601f830112620005375762000536620003c9565b5b815162000549848260208601620004d4565b91505092915050565b6000602082840312156200056b576200056a620003bf565b5b600082015167ffffffffffffffff8111156200058c576200058b620003c4565b5b6200059a848285016200051f565b91505092915050565b600082825260208201905092915050565b7f4f776e61626c653a2063616c6c6572206973206e6f7420746865206f776e6572600082015250565b6000620005ec602083620005a3565b9150620005f982620005b4565b602082019050919050565b600060208201905081810360008301526200061f81620005dd565b9050919050565b7f4e487b7100000000000000000000000000000000000000000000000000000000600052602260045260246000fd5b600060028204905060018216806200066e57607f821691505b60208210810362000684576200068362000626565b5b50919050565b613acf806200069a6000396000f3fe6080604052600436106101815760003560e01c80637ef758d4116100d1578063c87b56dd1161008a578063e725f87711610064578063e725f877146105a6578063e985e9c5146105e3578063f2fde38b14610620578063fb37e8831461064957610181565b8063c87b56dd14610503578063cdb0e89e14610540578063e1076b621461056957610181565b80637ef758d4146103f35780638da5cb5b1461043057806395d89b411461045b578063a22cb46514610486578063b88d4fde146104af578063c6682862146104d857610181565b806342842e0e1161013e5780636352211e116101185780636352211e146103375780636c0360eb1461037457806370a082311461039f578063715018a6146103dc57610181565b806342842e0e146102a85780634cf12d26146102d157806355f804b31461030e57610181565b806301ffc9a71461018657806306fdde03146101c3578063081812fc146101ee578063095ea7b31461022b57806323b872dd1461025457806332cb6b0c1461027d575b600080fd5b34801561019257600080fd5b506101ad60048036038101906101a89190612497565b610679565b6040516101ba91906124df565b60405180910390f35b3480156101cf57600080fd5b506101d861075b565b6040516101e59190612593565b60405180910390f35b3480156101fa57600080fd5b50610215600480360381019061021091906125eb565b6107ed565b6040516102229190612659565b60405180910390f35b34801561023757600080fd5b50610252600480360381019061024d91906126a0565b610872565b005b34801561026057600080fd5b5061027b600480360381019061027691906126e0565b610989565b005b34801561028957600080fd5b506102926109e9565b60405161029f9190612742565b60405180910390f35b3480156102b457600080fd5b506102cf60048036038101906102ca91906126e0565b6109ef565b005b3480156102dd57600080fd5b506102f860048036038101906102f39190612892565b610a0f565b6040516103059190612593565b60405180910390f35b34801561031a57600080fd5b5061033560048036038101906103309190612892565b610aae565b005b34801561034357600080fd5b5061035e600480360381019061035991906125eb565b610b44565b60405161036b9190612659565b60405180910390f35b34801561038057600080fd5b50610389610bf5565b6040516103969190612593565b60405180910390f35b3480156103ab57600080fd5b506103c660048036038101906103c191906128db565b610c83565b6040516103d39190612742565b60405180910390f35b3480156103e857600080fd5b506103f1610d3a565b005b3480156103ff57600080fd5b5061041a600480360381019061041591906125eb565b610dc2565b6040516104279190612593565b60405180910390f35b34801561043c57600080fd5b50610445610e6e565b6040516104529190612659565b60405180910390f35b34801561046757600080fd5b50610470610e98565b60405161047d9190612593565b60405180910390f35b34801561049257600080fd5b506104ad60048036038101906104a89190612934565b610f2a565b005b3480156104bb57600080fd5b506104d660048036038101906104d19190612a15565b610f40565b005b3480156104e457600080fd5b506104ed610fa2565b6040516104fa9190612593565b60405180910390f35b34801561050f57600080fd5b5061052a600480360381019061052591906125eb565b611030565b6040516105379190612593565b60405180910390f35b34801561054c57600080fd5b5061056760048036038101906105629190612a98565b611181565b005b34801561057557600080fd5b50610590600480360381019061058b91906125eb565b6111f5565b60405161059d9190612593565b60405180910390f35b3480156105b257600080fd5b506105cd60048036038101906105c891906125eb565b611295565b6040516105da9190612593565b60405180910390f35b3480156105ef57600080fd5b5061060a60048036038101906106059190612af4565b611382565b60405161061791906124df565b60405180910390f35b34801561062c57600080fd5b50610647600480360381019061064291906128db565b611416565b005b610663600480360381019061065e9190612892565b61150d565b60405161067091906124df565b60405180910390f35b60007f80ac58cd000000000000000000000000000000000000000000000000000000007bffffffffffffffffffffffffffffffffffffffffffffffffffffffff1916827bffffffffffffffffffffffffffffffffffffffffffffffffffffffff1916148061074457507f5b5e139f000000000000000000000000000000000000000000000000000000007bffffffffffffffffffffffffffffffffffffffffffffffffffffffff1916827bffffffffffffffffffffffffffffffffffffffffffffffffffffffff1916145b806107545750610753826115dc565b5b9050919050565b60606000805461076a90612b63565b80601f016020809104026020016040519081016040528092919081815260200182805461079690612b63565b80156107e35780601f106107b8576101008083540402835291602001916107e3565b820191906000526020600020905b8154815290600101906020018083116107c657829003601f168201915b5050505050905090565b60006107f882611646565b610837576040517f08c379a000000000000000000000000000000000000000000000000000000000815260040161082e90612c06565b60405180910390fd5b6004600083815260200190815260200160002060009054906101000a900473ffffffffffffffffffffffffffffffffffffffff169050919050565b600061087d82610b44565b90508073ffffffffffffffffffffffffffffffffffffffff168373ffffffffffffffffffffffffffffffffffffffff16036108ed576040517f08c379a00000000000000000000000000000000000000000000000000000000081526004016108e490612c98565b60405180910390fd5b8073ffffffffffffffffffffffffffffffffffffffff1661090c6116b2565b73ffffffffffffffffffffffffffffffffffffffff16148061093b575061093a816109356116b2565b611382565b5b61097a576040517f08c379a000000000000000000000000000000000000000000000000000000000815260040161097190612d2a565b60405180910390fd5b61098483836116ba565b505050565b61099a6109946116b2565b82611773565b6109d9576040517f08c379a00000000000000000000000000000000000000000000000000000000081526004016109d090612dbc565b60405180910390fd5b6109e4838383611851565b505050565b60095481565b610a0a83838360405180602001604052806000815250610f40565b505050565b60606000825111610a55576040517f08c379a0000000000000000000000000000000000000000000000000000000008152600401610a4c90612e28565b60405180910390fd5b6000600a8054610a6490612b63565b905011610a805760405180602001604052806000815250610aa7565b600a82600b604051602001610a9793929190612f18565b6040516020818303038152906040525b9050919050565b610ab66116b2565b73ffffffffffffffffffffffffffffffffffffffff16610ad4610e6e565b73ffffffffffffffffffffffffffffffffffffffff1614610b2a576040517f08c379a0000000000000000000000000000000000000000000000000000000008152600401610b2190612f95565b60405180910390fd5b80600a9080519060200190610b40929190612388565b5050565b6000806002600084815260200190815260200160002060009054906101000a900473ffffffffffffffffffffffffffffffffffffffff169050600073ffffffffffffffffffffffffffffffffffffffff168173ffffffffffffffffffffffffffffffffffffffff1603610bec576040517f08c379a0000000000000000000000000000000000000000000000000000000008152600401610be390613027565b60405180910390fd5b80915050919050565b600a8054610c0290612b63565b80601f0160208091040260200160405190810160405280929190818152602001828054610c2e90612b63565b8015610c7b5780601f10610c5057610100808354040283529160200191610c7b565b820191906000526020600020905b815481529060010190602001808311610c5e57829003601f168201915b505050505081565b60008073ffffffffffffffffffffffffffffffffffffffff168273ffffffffffffffffffffffffffffffffffffffff1603610cf3576040517f08c379a0000000000000000000000000000000000000000000000000000000008152600401610cea906130b9565b60405180910390fd5b600360008373ffffffffffffffffffffffffffffffffffffffff1673ffffffffffffffffffffffffffffffffffffffff168152602001908152602001600020549050919050565b610d426116b2565b73ffffffffffffffffffffffffffffffffffffffff16610d60610e6e565b73ffffffffffffffffffffffffffffffffffffffff1614610db6576040517f08c379a0000000000000000000000000000000000000000000000000000000008152600401610dad90612f95565b60405180910390fd5b610dc06000611ab7565b565b600d8181548110610dd257600080fd5b906000526020600020016000915090508054610ded90612b63565b80601f0160208091040260200160405190810160405280929190818152602001828054610e1990612b63565b8015610e665780601f10610e3b57610100808354040283529160200191610e66565b820191906000526020600020905b815481529060010190602001808311610e4957829003601f168201915b505050505081565b6000600760009054906101000a900473ffffffffffffffffffffffffffffffffffffffff16905090565b606060018054610ea790612b63565b80601f0160208091040260200160405190810160405280929190818152602001828054610ed390612b63565b8015610f205780601f10610ef557610100808354040283529160200191610f20565b820191906000526020600020905b815481529060010190602001808311610f0357829003601f168201915b5050505050905090565b610f3c610f356116b2565b8383611b7d565b5050565b610f51610f4b6116b2565b83611773565b610f90576040517f08c379a0000000000000000000000000000000000000000000000000000000008152600401610f8790612dbc565b60405180910390fd5b610f9c84848484611ce9565b50505050565b600b8054610faf90612b63565b80601f0160208091040260200160405190810160405280929190818152602001828054610fdb90612b63565b80156110285780601f10610ffd57610100808354040283529160200191611028565b820191906000526020600020905b81548152906001019060200180831161100b57829003601f168201915b505050505081565b606061103b82611646565b61107a576040517f08c379a00000000000000000000000000000000000000000000000000000000081526004016110719061314b565b60405180910390fd5b600060066000848152602001908152602001600020805461109a90612b63565b80601f01602080910402602001604051908101604052809291908181526020018280546110c690612b63565b80156111135780601f106110e857610100808354040283529160200191611113565b820191906000526020600020905b8154815290600101906020018083116110f657829003601f168201915b505050505090506000611124611d45565b9050600081510361113957819250505061117c565b60008251111561116e57808260405160200161115692919061316b565b6040516020818303038152906040529250505061117c565b61117784611d5c565b925050505b919050565b61118a82611646565b6111c9576040517f08c379a00000000000000000000000000000000000000000000000000000000081526004016111c090613201565b60405180910390fd5b80600c600084815260200190815260200160002090805190602001906111f0929190612388565b505050565b600c602052806000526040600020600091509050805461121490612b63565b80601f016020809104026020016040519081016040528092919081815260200182805461124090612b63565b801561128d5780601f106112625761010080835404028352916020019161128d565b820191906000526020600020905b81548152906001019060200180831161127057829003601f168201915b505050505081565b60606112a082611646565b6112df576040517f08c379a00000000000000000000000000000000000000000000000000000000081526004016112d690613293565b60405180910390fd5b600c600083815260200190815260200160002080546112fd90612b63565b80601f016020809104026020016040519081016040528092919081815260200182805461132990612b63565b80156113765780601f1061134b57610100808354040283529160200191611376565b820191906000526020600020905b81548152906001019060200180831161135957829003601f168201915b50505050509050919050565b6000600560008473ffffffffffffffffffffffffffffffffffffffff1673ffffffffffffffffffffffffffffffffffffffff16815260200190815260200160002060008373ffffffffffffffffffffffffffffffffffffffff1673ffffffffffffffffffffffffffffffffffffffff16815260200190815260200160002060009054906101000a900460ff16905092915050565b61141e6116b2565b73ffffffffffffffffffffffffffffffffffffffff1661143c610e6e565b73ffffffffffffffffffffffffffffffffffffffff1614611492576040517f08c379a000000000000000000000000000000000000000000000000000000000815260040161148990612f95565b60405180910390fd5b600073ffffffffffffffffffffffffffffffffffffffff168173ffffffffffffffffffffffffffffffffffffffff1603611501576040517f08c379a00000000000000000000000000000000000000000000000000000000081526004016114f890613325565b60405180910390fd5b61150a81611ab7565b50565b600080825111611552576040517f08c379a0000000000000000000000000000000000000000000000000000000008152600401611549906133b7565b60405180910390fd5b61155c6008611e03565b60006115686008611e19565b90506115743382611e27565b600061157f84610a0f565b905061158b8282612000565b6115958285611181565b600d819080600181540180825580915050600190039060005260206000200160009091909190915090805190602001906115d0929190612388565b50600192505050919050565b60007f01ffc9a7000000000000000000000000000000000000000000000000000000007bffffffffffffffffffffffffffffffffffffffffffffffffffffffff1916827bffffffffffffffffffffffffffffffffffffffffffffffffffffffff1916149050919050565b60008073ffffffffffffffffffffffffffffffffffffffff166002600084815260200190815260200160002060009054906101000a900473ffffffffffffffffffffffffffffffffffffffff1673ffffffffffffffffffffffffffffffffffffffff1614159050919050565b600033905090565b816004600083815260200190815260200160002060006101000a81548173ffffffffffffffffffffffffffffffffffffffff021916908373ffffffffffffffffffffffffffffffffffffffff160217905550808273ffffffffffffffffffffffffffffffffffffffff1661172d83610b44565b73ffffffffffffffffffffffffffffffffffffffff167f8c5be1e5ebec7d5bd14f71427d1e84f3dd0314c0f7b2291e5b200ac8c7c3b92560405160405180910390a45050565b600061177e82611646565b6117bd576040517f08c379a00000000000000000000000000000000000000000000000000000000081526004016117b490613449565b60405180910390fd5b60006117c883610b44565b90508073ffffffffffffffffffffffffffffffffffffffff168473ffffffffffffffffffffffffffffffffffffffff16148061180a57506118098185611382565b5b8061184857508373ffffffffffffffffffffffffffffffffffffffff16611830846107ed565b73ffffffffffffffffffffffffffffffffffffffff16145b91505092915050565b8273ffffffffffffffffffffffffffffffffffffffff1661187182610b44565b73ffffffffffffffffffffffffffffffffffffffff16146118c7576040517f08c379a00000000000000000000000000000000000000000000000000000000081526004016118be906134db565b60405180910390fd5b600073ffffffffffffffffffffffffffffffffffffffff168273ffffffffffffffffffffffffffffffffffffffff1603611936576040517f08c379a000000000000000000000000000000000000000000000000000000000815260040161192d9061356d565b60405180910390fd5b611941838383612074565b61194c6000826116ba565b6001600360008573ffffffffffffffffffffffffffffffffffffffff1673ffffffffffffffffffffffffffffffffffffffff168152602001908152602001600020600082825461199c91906135bc565b925050819055506001600360008473ffffffffffffffffffffffffffffffffffffffff1673ffffffffffffffffffffffffffffffffffffffff16815260200190815260200160002060008282546119f391906135f0565b92505081905550816002600083815260200190815260200160002060006101000a81548173ffffffffffffffffffffffffffffffffffffffff021916908373ffffffffffffffffffffffffffffffffffffffff160217905550808273ffffffffffffffffffffffffffffffffffffffff168473ffffffffffffffffffffffffffffffffffffffff167fddf252ad1be2c89b69c2b068fc378daa952ba7f163c4a11628f55a4df523b3ef60405160405180910390a4611ab2838383612079565b505050565b6000600760009054906101000a900473ffffffffffffffffffffffffffffffffffffffff16905081600760006101000a81548173ffffffffffffffffffffffffffffffffffffffff021916908373ffffffffffffffffffffffffffffffffffffffff1602179055508173ffffffffffffffffffffffffffffffffffffffff168173ffffffffffffffffffffffffffffffffffffffff167f8be0079c531659141344cd1fd0a4f28419497f9722a3daafe3b4186f6b6457e060405160405180910390a35050565b8173ffffffffffffffffffffffffffffffffffffffff168373ffffffffffffffffffffffffffffffffffffffff1603611beb576040517f08c379a0000000000000000000000000000000000000000000000000000000008152600401611be290613692565b60405180910390fd5b80600560008573ffffffffffffffffffffffffffffffffffffffff1673ffffffffffffffffffffffffffffffffffffffff16815260200190815260200160002060008473ffffffffffffffffffffffffffffffffffffffff1673ffffffffffffffffffffffffffffffffffffffff16815260200190815260200160002060006101000a81548160ff0219169083151502179055508173ffffffffffffffffffffffffffffffffffffffff168373ffffffffffffffffffffffffffffffffffffffff167f17307eab39ab6107e8899845ad3d59bd9653f200f220920489ca2b5937696c3183604051611cdc91906124df565b60405180910390a3505050565b611cf4848484611851565b611d008484848461207e565b611d3f576040517f08c379a0000000000000000000000000000000000000000000000000000000008152600401611d3690613724565b60405180910390fd5b50505050565b606060405180602001604052806000815250905090565b6060611d6782611646565b611da6576040517f08c379a0000000000000000000000000000000000000000000000000000000008152600401611d9d90613293565b60405180910390fd5b6000611db0611d45565b90506000815111611dd05760405180602001604052806000815250611dfb565b80611dda84612205565b604051602001611deb92919061316b565b6040516020818303038152906040525b915050919050565b6001816000016000828254019250508190555050565b600081600001549050919050565b600073ffffffffffffffffffffffffffffffffffffffff168273ffffffffffffffffffffffffffffffffffffffff1603611e96576040517f08c379a0000000000000000000000000000000000000000000000000000000008152600401611e8d90613790565b60405180910390fd5b611e9f81611646565b15611edf576040517f08c379a0000000000000000000000000000000000000000000000000000000008152600401611ed6906137fc565b60405180910390fd5b611eeb60008383612074565b6001600360008473ffffffffffffffffffffffffffffffffffffffff1673ffffffffffffffffffffffffffffffffffffffff1681526020019081526020016000206000828254611f3b91906135f0565b92505081905550816002600083815260200190815260200160002060006101000a81548173ffffffffffffffffffffffffffffffffffffffff021916908373ffffffffffffffffffffffffffffffffffffffff160217905550808273ffffffffffffffffffffffffffffffffffffffff16600073ffffffffffffffffffffffffffffffffffffffff167fddf252ad1be2c89b69c2b068fc378daa952ba7f163c4a11628f55a4df523b3ef60405160405180910390a4611ffc60008383612079565b5050565b61200982611646565b612048576040517f08c379a000000000000000000000000000000000000000000000000000000000815260040161203f9061388e565b60405180910390fd5b8060066000848152602001908152602001600020908051906020019061206f929190612388565b505050565b505050565b505050565b600061209f8473ffffffffffffffffffffffffffffffffffffffff16612365565b156121f8578373ffffffffffffffffffffffffffffffffffffffff1663150b7a026120c86116b2565b8786866040518563ffffffff1660e01b81526004016120ea9493929190613903565b6020604051808303816000875af192505050801561212657506040513d601f19601f820116820180604052508101906121239190613964565b60015b6121a8573d8060008114612156576040519150601f19603f3d011682016040523d82523d6000602084013e61215b565b606091505b5060008151036121a0576040517f08c379a000000000000000000000000000000000000000000000000000000000815260040161219790613724565b60405180910390fd5b805181602001fd5b63150b7a0260e01b7bffffffffffffffffffffffffffffffffffffffffffffffffffffffff1916817bffffffffffffffffffffffffffffffffffffffffffffffffffffffff1916149150506121fd565b600190505b949350505050565b60606000820361224c576040518060400160405280600181526020017f30000000000000000000000000000000000000000000000000000000000000008152509050612360565b600082905060005b6000821461227e57808061226790613991565b915050600a826122779190613a08565b9150612254565b60008167ffffffffffffffff81111561229a57612299612767565b5b6040519080825280601f01601f1916602001820160405280156122cc5781602001600182028036833780820191505090505b5090505b60008514612359576001826122e591906135bc565b9150600a856122f49190613a39565b603061230091906135f0565b60f81b81838151811061231657612315613a6a565b5b60200101907effffffffffffffffffffffffffffffffffffffffffffffffffffffffffffff1916908160001a905350600a856123529190613a08565b94506122d0565b8093505050505b919050565b6000808273ffffffffffffffffffffffffffffffffffffffff163b119050919050565b82805461239490612b63565b90600052602060002090601f0160209004810192826123b657600085556123fd565b82601f106123cf57805160ff19168380011785556123fd565b828001600101855582156123fd579182015b828111156123fc5782518255916020019190600101906123e1565b5b50905061240a919061240e565b5090565b5b8082111561242757600081600090555060010161240f565b5090565b6000604051905090565b600080fd5b600080fd5b60007fffffffff0000000000000000000000000000000000000000000000000000000082169050919050565b6124748161243f565b811461247f57600080fd5b50565b6000813590506124918161246b565b92915050565b6000602082840312156124ad576124ac612435565b5b60006124bb84828501612482565b91505092915050565b60008115159050919050565b6124d9816124c4565b82525050565b60006020820190506124f460008301846124d0565b92915050565b600081519050919050565b600082825260208201905092915050565b60005b83811015612534578082015181840152602081019050612519565b83811115612543576000848401525b50505050565b6000601f19601f8301169050919050565b6000612565826124fa565b61256f8185612505565b935061257f818560208601612516565b61258881612549565b840191505092915050565b600060208201905081810360008301526125ad818461255a565b905092915050565b6000819050919050565b6125c8816125b5565b81146125d357600080fd5b50565b6000813590506125e5816125bf565b92915050565b60006020828403121561260157612600612435565b5b600061260f848285016125d6565b91505092915050565b600073ffffffffffffffffffffffffffffffffffffffff82169050919050565b600061264382612618565b9050919050565b61265381612638565b82525050565b600060208201905061266e600083018461264a565b92915050565b61267d81612638565b811461268857600080fd5b50565b60008135905061269a81612674565b92915050565b600080604083850312156126b7576126b6612435565b5b60006126c58582860161268b565b92505060206126d6858286016125d6565b9150509250929050565b6000806000606084860312156126f9576126f8612435565b5b60006127078682870161268b565b93505060206127188682870161268b565b9250506040612729868287016125d6565b9150509250925092565b61273c816125b5565b82525050565b60006020820190506127576000830184612733565b92915050565b600080fd5b600080fd5b7f4e487b7100000000000000000000000000000000000000000000000000000000600052604160045260246000fd5b61279f82612549565b810181811067ffffffffffffffff821117156127be576127bd612767565b5b80604052505050565b60006127d161242b565b90506127dd8282612796565b919050565b600067ffffffffffffffff8211156127fd576127fc612767565b5b61280682612549565b9050602081019050919050565b82818337600083830152505050565b6000612835612830846127e2565b6127c7565b90508281526020810184848401111561285157612850612762565b5b61285c848285612813565b509392505050565b600082601f8301126128795761287861275d565b5b8135612889848260208601612822565b91505092915050565b6000602082840312156128a8576128a7612435565b5b600082013567ffffffffffffffff8111156128c6576128c561243a565b5b6128d284828501612864565b91505092915050565b6000602082840312156128f1576128f0612435565b5b60006128ff8482850161268b565b91505092915050565b612911816124c4565b811461291c57600080fd5b50565b60008135905061292e81612908565b92915050565b6000806040838503121561294b5761294a612435565b5b60006129598582860161268b565b925050602061296a8582860161291f565b9150509250929050565b600067ffffffffffffffff82111561298f5761298e612767565b5b61299882612549565b9050602081019050919050565b60006129b86129b384612974565b6127c7565b9050828152602081018484840111156129d4576129d3612762565b5b6129df848285612813565b509392505050565b600082601f8301126129fc576129fb61275d565b5b8135612a0c8482602086016129a5565b91505092915050565b60008060008060808587031215612a2f57612a2e612435565b5b6000612a3d8782880161268b565b9450506020612a4e8782880161268b565b9350506040612a5f878288016125d6565b925050606085013567ffffffffffffffff811115612a8057612a7f61243a565b5b612a8c878288016129e7565b91505092959194509250565b60008060408385031215612aaf57612aae612435565b5b6000612abd858286016125d6565b925050602083013567ffffffffffffffff811115612ade57612add61243a565b5b612aea85828601612864565b9150509250929050565b60008060408385031215612b0b57612b0a612435565b5b6000612b198582860161268b565b9250506020612b2a8582860161268b565b9150509250929050565b7f4e487b7100000000000000000000000000000000000000000000000000000000600052602260045260246000fd5b60006002820490506001821680612b7b57607f821691505b602082108103612b8e57612b8d612b34565b5b50919050565b7f4552433732313a20617070726f76656420717565727920666f72206e6f6e657860008201527f697374656e7420746f6b656e0000000000000000000000000000000000000000602082015250565b6000612bf0602c83612505565b9150612bfb82612b94565b604082019050919050565b60006020820190508181036000830152612c1f81612be3565b9050919050565b7f4552433732313a20617070726f76616c20746f2063757272656e74206f776e6560008201527f7200000000000000000000000000000000000000000000000000000000000000602082015250565b6000612c82602183612505565b9150612c8d82612c26565b604082019050919050565b60006020820190508181036000830152612cb181612c75565b9050919050565b7f4552433732313a20617070726f76652063616c6c6572206973206e6f74206f7760008201527f6e6572206e6f7220617070726f76656420666f7220616c6c0000000000000000602082015250565b6000612d14603883612505565b9150612d1f82612cb8565b604082019050919050565b60006020820190508181036000830152612d4381612d07565b9050919050565b7f4552433732313a207472616e736665722063616c6c6572206973206e6f74206f60008201527f776e6572206e6f7220617070726f766564000000000000000000000000000000602082015250565b6000612da6603183612505565b9150612db182612d4a565b604082019050919050565b60006020820190508181036000830152612dd581612d99565b9050919050565b7f20746f6b656e55524920737472696e672063616e206e6f74206265206e756c6c600082015250565b6000612e12602083612505565b9150612e1d82612ddc565b602082019050919050565b60006020820190508181036000830152612e4181612e05565b9050919050565b600081905092915050565b60008190508160005260206000209050919050565b60008154612e7581612b63565b612e7f8186612e48565b94506001821660008114612e9a5760018114612eab57612ede565b60ff19831686528186019350612ede565b612eb485612e53565b60005b83811015612ed657815481890152600182019150602081019050612eb7565b838801955050505b50505092915050565b6000612ef2826124fa565b612efc8185612e48565b9350612f0c818560208601612516565b80840191505092915050565b6000612f248286612e68565b9150612f308285612ee7565b9150612f3c8284612e68565b9150819050949350505050565b7f4f776e61626c653a2063616c6c6572206973206e6f7420746865206f776e6572600082015250565b6000612f7f602083612505565b9150612f8a82612f49565b602082019050919050565b60006020820190508181036000830152612fae81612f72565b9050919050565b7f4552433732313a206f776e657220717565727920666f72206e6f6e657869737460008201527f656e7420746f6b656e0000000000000000000000000000000000000000000000602082015250565b6000613011602983612505565b915061301c82612fb5565b604082019050919050565b6000602082019050818103600083015261304081613004565b9050919050565b7f4552433732313a2062616c616e636520717565727920666f7220746865207a6560008201527f726f206164647265737300000000000000000000000000000000000000000000602082015250565b60006130a3602a83612505565b91506130ae82613047565b604082019050919050565b600060208201905081810360008301526130d281613096565b9050919050565b7f45524337323155524953746f726167653a2055524920717565727920666f722060008201527f6e6f6e6578697374656e7420746f6b656e000000000000000000000000000000602082015250565b6000613135603183612505565b9150613140826130d9565b604082019050919050565b6000602082019050818103600083015261316481613128565b9050919050565b60006131778285612ee7565b91506131838284612ee7565b91508190509392505050565b7f4552433732314d657461646174613a2055524920736574206f66206e6f6e657860008201527f697374656e7420746f6b656e0000000000000000000000000000000000000000602082015250565b60006131eb602c83612505565b91506131f68261318f565b604082019050919050565b6000602082019050818103600083015261321a816131de565b9050919050565b7f4552433732314d657461646174613a2055524920717565727920666f72206e6f60008201527f6e6578697374656e7420746f6b656e0000000000000000000000000000000000602082015250565b600061327d602f83612505565b915061328882613221565b604082019050919050565b600060208201905081810360008301526132ac81613270565b9050919050565b7f4f776e61626c653a206e6577206f776e657220697320746865207a65726f206160008201527f6464726573730000000000000000000000000000000000000000000000000000602082015250565b600061330f602683612505565b915061331a826132b3565b604082019050919050565b6000602082019050818103600083015261333e81613302565b9050919050565b7f546f6b656e4e616d652063616e6e6f74206265206e756c6c206f7220656d707460008201527f7900000000000000000000000000000000000000000000000000000000000000602082015250565b60006133a1602183612505565b91506133ac82613345565b604082019050919050565b600060208201905081810360008301526133d081613394565b9050919050565b7f4552433732313a206f70657261746f7220717565727920666f72206e6f6e657860008201527f697374656e7420746f6b656e0000000000000000000000000000000000000000602082015250565b6000613433602c83612505565b915061343e826133d7565b604082019050919050565b6000602082019050818103600083015261346281613426565b9050919050565b7f4552433732313a207472616e736665722066726f6d20696e636f72726563742060008201527f6f776e6572000000000000000000000000000000000000000000000000000000602082015250565b60006134c5602583612505565b91506134d082613469565b604082019050919050565b600060208201905081810360008301526134f4816134b8565b9050919050565b7f4552433732313a207472616e7366657220746f20746865207a65726f2061646460008201527f7265737300000000000000000000000000000000000000000000000000000000602082015250565b6000613557602483612505565b9150613562826134fb565b604082019050919050565b600060208201905081810360008301526135868161354a565b9050919050565b7f4e487b7100000000000000000000000000000000000000000000000000000000600052601160045260246000fd5b60006135c7826125b5565b91506135d2836125b5565b9250828210156135e5576135e461358d565b5b828203905092915050565b60006135fb826125b5565b9150613606836125b5565b9250827fffffffffffffffffffffffffffffffffffffffffffffffffffffffffffffffff0382111561363b5761363a61358d565b5b828201905092915050565b7f4552433732313a20617070726f766520746f2063616c6c657200000000000000600082015250565b600061367c601983612505565b915061368782613646565b602082019050919050565b600060208201905081810360008301526136ab8161366f565b9050919050565b7f4552433732313a207472616e7366657220746f206e6f6e20455243373231526560008201527f63656976657220696d706c656d656e7465720000000000000000000000000000602082015250565b600061370e603283612505565b9150613719826136b2565b604082019050919050565b6000602082019050818103600083015261373d81613701565b9050919050565b7f4552433732313a206d696e7420746f20746865207a65726f2061646472657373600082015250565b600061377a602083612505565b915061378582613744565b602082019050919050565b600060208201905081810360008301526137a98161376d565b9050919050565b7f4552433732313a20746f6b656e20616c7265616479206d696e74656400000000600082015250565b60006137e6601c83612505565b91506137f1826137b0565b602082019050919050565b60006020820190508181036000830152613815816137d9565b9050919050565b7f45524337323155524953746f726167653a2055524920736574206f66206e6f6e60008201527f6578697374656e7420746f6b656e000000000000000000000000000000000000602082015250565b6000613878602e83612505565b91506138838261381c565b604082019050919050565b600060208201905081810360008301526138a78161386b565b9050919050565b600081519050919050565b600082825260208201905092915050565b60006138d5826138ae565b6138df81856138b9565b93506138ef818560208601612516565b6138f881612549565b840191505092915050565b6000608082019050613918600083018761264a565b613925602083018661264a565b6139326040830185612733565b818103606083015261394481846138ca565b905095945050505050565b60008151905061395e8161246b565b92915050565b60006020828403121561397a57613979612435565b5b60006139888482850161394f565b91505092915050565b600061399c826125b5565b91507fffffffffffffffffffffffffffffffffffffffffffffffffffffffffffffffff82036139ce576139cd61358d565b5b600182019050919050565b7f4e487b7100000000000000000000000000000000000000000000000000000000600052601260045260246000fd5b6000613a13826125b5565b9150613a1e836125b5565b925082613a2e57613a2d6139d9565b5b828204905092915050565b6000613a44826125b5565b9150613a4f836125b5565b925082613a5f57613a5e6139d9565b5b828206905092915050565b7f4e487b7100000000000000000000000000000000000000000000000000000000600052603260045260246000fdfea264697066735822122015a198b942c4ea719806470bec4c3b9534e18a7d2393743394b2311fb640760264736f6c634300080d0033",
  "linkReferences": {},
  "deployedLinkReferences": {}
}